{
  "contractName": "Migrations",
  "abi": [
    {
      "inputs": [],
      "stateMutability": "nonpayable",
      "type": "constructor"
    },
    {
      "inputs": [],
      "name": "last_completed_migration",
      "outputs": [
        {
          "internalType": "uint256",
          "name": "",
          "type": "uint256"
        }
      ],
      "stateMutability": "view",
      "type": "function"
    },
    {
      "inputs": [],
      "name": "owners",
      "outputs": [
        {
          "internalType": "address",
          "name": "",
          "type": "address"
        }
      ],
      "stateMutability": "view",
      "type": "function"
    },
    {
      "inputs": [
        {
          "internalType": "uint256",
          "name": "completed",
          "type": "uint256"
        }
      ],
      "name": "setcompleted",
      "outputs": [],
      "stateMutability": "nonpayable",
      "type": "function"
    }
  ],
  "bytecode": "0x608060405234801561001057600080fd5b50336000806101000a81548173ffffffffffffffffffffffffffffffffffffffff021916908373ffffffffffffffffffffffffffffffffffffffff16021790555061024a806100606000396000f3fe608060405234801561001057600080fd5b50600436106100415760003560e01c8063445df0ac146100465780638f8be06e14610064578063affe39c114610080575b600080fd5b61004e61009e565b60405161005b919061013f565b60405180910390f35b61007e6004803603810190610079919061018b565b6100a4565b005b610088610102565b60405161009591906101f9565b60405180910390f35b60015481565b60008054906101000a900473ffffffffffffffffffffffffffffffffffffffff1673ffffffffffffffffffffffffffffffffffffffff163373ffffffffffffffffffffffffffffffffffffffff16036100ff57806001819055505b50565b60008054906101000a900473ffffffffffffffffffffffffffffffffffffffff1681565b6000819050919050565b61013981610126565b82525050565b60006020820190506101546000830184610130565b92915050565b600080fd5b61016881610126565b811461017357600080fd5b50565b6000813590506101858161015f565b92915050565b6000602082840312156101a1576101a061015a565b5b60006101af84828501610176565b91505092915050565b600073ffffffffffffffffffffffffffffffffffffffff82169050919050565b60006101e3826101b8565b9050919050565b6101f3816101d8565b82525050565b600060208201905061020e60008301846101ea565b9291505056fea2646970667358221220f4e9a5d55ab79a9769b0eea13a6bc709e18d60f6e4714082272a5ed19420ac9a64736f6c63430008110033",
  "immutableReferences": {},
  "source": "pragma solidity >=0.8.4;\r\n\r\ncontract Migrations {\r\n    address public owners;\r\n    uint256 public last_completed_migration;\r\n\r\n    modifier restricted() {\r\n        if (msg.sender == owners) _;\r\n    }\r\n\r\n    constructor() {\r\n        owners = msg.sender;\r\n    }\r\n\r\n    function setcompleted(uint256 completed) public restricted {\r\n        last_completed_migration = completed;\r\n    }\r\n}\r\n",
  "sourcePath": "C:\\Users\\SRINIVAS\\OneDrive\\Desktop\\Supplychain\\contracts\\Migrations.sol",
  "compiler": {
    "name": "solc",
    "version": "0.8.17+commit.8df45f5f.Emscripten.clang"
  },
  "schemaVersion": "3.4.10",
  "updatedAt": "2022-09-18T11:21:31.539Z",
  "devdoc": {
    "kind": "dev",
    "methods": {},
    "version": 1
  },
  "userdoc": {
    "kind": "user",
    "methods": {},
    "version": 1
  }
}