{
  "contractName": "SupplyChain",
  "abi": [
    {
      "anonymous": false,
      "inputs": [
        {
          "indexed": false,
          "internalType": "address",
          "name": "entityId",
          "type": "address"
        },
        {
          "indexed": false,
          "internalType": "string",
          "name": "entityMode",
          "type": "string"
        }
      ],
      "name": "AddEntity",
      "type": "event"
    },
    {
      "anonymous": false,
      "inputs": [
        {
          "indexed": false,
          "internalType": "uint256",
          "name": "seedBatchId",
          "type": "uint256"
        },
        {
          "indexed": true,
          "internalType": "address",
          "name": "manufacturer",
          "type": "address"
        }
      ],
      "name": "AddSeedBatch",
      "type": "event"
    },
    {
      "anonymous": false,
      "inputs": [
        {
          "indexed": true,
          "internalType": "address",
          "name": "issuer",
          "type": "address"
        },
        {
          "indexed": true,
          "internalType": "address",
          "name": "prover",
          "type": "address"
        },
        {
          "indexed": false,
          "internalType": "uint256",
          "name": "certificateId",
          "type": "uint256"
        }
      ],
      "name": "IssueCertificate",
      "type": "event"
    },
    {
      "inputs": [],
      "name": "MAX_CERTIFICATIONS",
      "outputs": [
        {
          "internalType": "uint256",
          "name": "",
          "type": "uint256"
        }
      ],
      "stateMutability": "view",
      "type": "function"
    },
    {
      "inputs": [
        {
          "internalType": "uint256",
          "name": "",
          "type": "uint256"
        }
      ],
      "name": "certificateIds",
      "outputs": [
        {
          "internalType": "uint256",
          "name": "",
          "type": "uint256"
        }
      ],
      "stateMutability": "view",
      "type": "function"
    },
    {
      "inputs": [
        {
          "internalType": "uint256",
          "name": "",
          "type": "uint256"
        }
      ],
      "name": "certificates",
      "outputs": [
        {
          "internalType": "uint256",
          "name": "id",
          "type": "uint256"
        },
        {
          "components": [
            {
              "internalType": "address",
              "name": "id",
              "type": "address"
            },
            {
              "internalType": "enum SupplyChain.Mode",
              "name": "mode",
              "type": "uint8"
            },
            {
              "internalType": "uint256[]",
              "name": "CertificateIds",
              "type": "uint256[]"
            }
          ],
          "internalType": "struct SupplyChain.Entity",
          "name": "issuer",
          "type": "tuple"
        },
        {
          "components": [
            {
              "internalType": "address",
              "name": "id",
              "type": "address"
            },
            {
              "internalType": "enum SupplyChain.Mode",
              "name": "mode",
              "type": "uint8"
            },
            {
              "internalType": "uint256[]",
              "name": "CertificateIds",
              "type": "uint256[]"
            }
          ],
          "internalType": "struct SupplyChain.Entity",
          "name": "prover",
          "type": "tuple"
        },
        {
          "internalType": "bytes",
          "name": "signature",
          "type": "bytes"
        },
        {
          "internalType": "enum SupplyChain.Status",
          "name": "status",
          "type": "uint8"
        }
      ],
      "stateMutability": "view",
      "type": "function"
    },
    {
      "inputs": [
        {
          "internalType": "address",
          "name": "",
          "type": "address"
        }
      ],
      "name": "entities",
      "outputs": [
        {
          "internalType": "address",
          "name": "id",
          "type": "address"
        },
        {
          "internalType": "enum SupplyChain.Mode",
          "name": "mode",
          "type": "uint8"
        }
      ],
      "stateMutability": "view",
      "type": "function"
    },
    {
      "inputs": [
        {
          "internalType": "uint256",
          "name": "",
          "type": "uint256"
        }
      ],
      "name": "seedBatchIds",
      "outputs": [
        {
          "internalType": "uint256",
          "name": "",
          "type": "uint256"
        }
      ],
      "stateMutability": "view",
      "type": "function"
    },
    {
      "inputs": [
        {
          "internalType": "uint256",
          "name": "",
          "type": "uint256"
        }
      ],
      "name": "seedBatches",
      "outputs": [
        {
          "internalType": "uint256",
          "name": "id",
          "type": "uint256"
        },
        {
          "internalType": "string",
          "name": "brand",
          "type": "string"
        },
        {
          "internalType": "address",
          "name": "manufacturer",
          "type": "address"
        }
      ],
      "stateMutability": "view",
      "type": "function"
    },
    {
      "inputs": [
        {
          "internalType": "address",
          "name": "_id",
          "type": "address"
        },
        {
          "internalType": "string",
          "name": "_mode",
          "type": "string"
        }
      ],
      "name": "addEntity",
      "outputs": [],
      "stateMutability": "nonpayable",
      "type": "function"
    },
    {
      "inputs": [
        {
          "internalType": "string",
          "name": "brand",
          "type": "string"
        },
        {
          "internalType": "address",
          "name": "manufacturer",
          "type": "address"
        }
      ],
      "name": "addSeedBatch",
      "outputs": [
        {
          "internalType": "uint256",
          "name": "",
          "type": "uint256"
        }
      ],
      "stateMutability": "nonpayable",
      "type": "function"
    },
    {
      "inputs": [
        {
          "internalType": "address",
          "name": "_issuer",
          "type": "address"
        },
        {
          "internalType": "address",
          "name": "_prover",
          "type": "address"
        },
        {
          "internalType": "string",
          "name": "_status",
          "type": "string"
        },
        {
          "internalType": "uint256",
          "name": "seedBatchId",
          "type": "uint256"
        },
        {
          "internalType": "bytes",
          "name": "signature",
          "type": "bytes"
        }
      ],
      "name": "issueCertificate",
      "outputs": [
        {
          "internalType": "uint256",
          "name": "",
          "type": "uint256"
        }
      ],
      "stateMutability": "nonpayable",
      "type": "function"
    },
    {
      "inputs": [
        {
          "internalType": "bytes32",
          "name": "message",
          "type": "bytes32"
        },
        {
          "internalType": "uint256",
          "name": "id",
          "type": "uint256"
        },
        {
          "internalType": "address",
          "name": "issuer",
          "type": "address"
        }
      ],
      "name": "isMatchingSignature",
      "outputs": [
        {
          "internalType": "bool",
          "name": "",
          "type": "bool"
        }
      ],
      "stateMutability": "view",
      "type": "function"
    }
  ],
  "bytecode": "0x608060405234801561001057600080fd5b50612a65806100206000396000f3fe608060405234801561001057600080fd5b506004361061009e5760003560e01c8063663b3e2211610066578063663b3e2214610184578063b5bad46d146101b8578063c8d8184b146101d4578063f33f78eb14610204578063f5802bed146102345761009e565b80630f9c774d146100a35780631d8ee48a146100d3578063329d565e1461010457806345194c07146101365780634851a01d14610166575b600080fd5b6100bd60048036038101906100b891906117b3565b610264565b6040516100ca91906117ef565b60405180910390f35b6100ed60048036038101906100e89190611868565b610288565b6040516100fb92919061191b565b60405180910390f35b61011e600480360381019061011991906117b3565b6102d9565b60405161012d939291906119d4565b60405180910390f35b610150600480360381019061014b9190611a48565b6103ab565b60405161015d9190611ab6565b60405180910390f35b61016e610733565b60405161017b91906117ef565b60405180910390f35b61019e600480360381019061019991906117b3565b610738565b6040516101af959493929190611c9a565b60405180910390f35b6101d260048036038101906101cd9190611e37565b6109e9565b005b6101ee60048036038101906101e99190611f34565b610ba6565b6040516101fb91906117ef565b60405180910390f35b61021e60048036038101906102199190611fe7565b61114d565b60405161022b91906117ef565b60405180910390f35b61024e600480360381019061024991906117b3565b611307565b60405161025b91906117ef565b60405180910390f35b6000818154811061027457600080fd5b906000526020600020016000915090505481565b60046020528060005260406000206000915090508060000160009054906101000a900473ffffffffffffffffffffffffffffffffffffffff16908060000160149054906101000a900460ff16905082565b600260205280600052604060002060009150905080600001549080600101805461030290612072565b80601f016020809104026020016040519081016040528092919081815260200182805461032e90612072565b801561037b5780601f106103505761010080835404028352916020019161037b565b820191906000526020600020905b81548152906001019060200180831161035e57829003601f168201915b5050505050908060020160009054906101000a900473ffffffffffffffffffffffffffffffffffffffff16905083565b600080600360008581526020019081526020016000206040518060a001604052908160008201548152602001600182016040518060600160405290816000820160009054906101000a900473ffffffffffffffffffffffffffffffffffffffff1673ffffffffffffffffffffffffffffffffffffffff1673ffffffffffffffffffffffffffffffffffffffff1681526020016000820160149054906101000a900460ff166002811115610461576104606118a4565b5b6002811115610473576104726118a4565b5b8152602001600182018054806020026020016040519081016040528092919081815260200182805480156104c657602002820191906000526020600020905b8154815260200190600101908083116104b2575b5050505050815250508152602001600382016040518060600160405290816000820160009054906101000a900473ffffffffffffffffffffffffffffffffffffffff1673ffffffffffffffffffffffffffffffffffffffff1673ffffffffffffffffffffffffffffffffffffffff1681526020016000820160149054906101000a900460ff16600281111561055e5761055d6118a4565b5b60028111156105705761056f6118a4565b5b8152602001600182018054806020026020016040519081016040528092919081815260200182805480156105c357602002820191906000526020600020905b8154815260200190600101908083116105af575b50505050508152505081526020016005820180546105e090612072565b80601f016020809104026020016040519081016040528092919081815260200182805461060c90612072565b80156106595780601f1061062e57610100808354040283529160200191610659565b820191906000526020600020905b81548152906001019060200180831161063c57829003601f168201915b505050505081526020016006820160009054906101000a900460ff166004811115610687576106866118a4565b5b6004811115610699576106986118a4565b5b8152505090508273ffffffffffffffffffffffffffffffffffffffff1681602001516000015173ffffffffffffffffffffffffffffffffffffffff16146106df57600080fd5b60006106ef86836060015161132b565b905081602001516000015173ffffffffffffffffffffffffffffffffffffffff168173ffffffffffffffffffffffffffffffffffffffff1614925050509392505050565b600281565b6003602052806000526040600020600091509050806000015490806001016040518060600160405290816000820160009054906101000a900473ffffffffffffffffffffffffffffffffffffffff1673ffffffffffffffffffffffffffffffffffffffff1673ffffffffffffffffffffffffffffffffffffffff1681526020016000820160149054906101000a900460ff1660028111156107dc576107db6118a4565b5b60028111156107ee576107ed6118a4565b5b81526020016001820180548060200260200160405190810160405280929190818152602001828054801561084157602002820191906000526020600020905b81548152602001906001019080831161082d575b50505050508152505090806003016040518060600160405290816000820160009054906101000a900473ffffffffffffffffffffffffffffffffffffffff1673ffffffffffffffffffffffffffffffffffffffff1673ffffffffffffffffffffffffffffffffffffffff1681526020016000820160149054906101000a900460ff1660028111156108d5576108d46118a4565b5b60028111156108e7576108e66118a4565b5b81526020016001820180548060200260200160405190810160405280929190818152602001828054801561093a57602002820191906000526020600020905b815481526020019060010190808311610926575b5050505050815250509080600501805461095390612072565b80601f016020809104026020016040519081016040528092919081815260200182805461097f90612072565b80156109cc5780601f106109a1576101008083540402835291602001916109cc565b820191906000526020600020905b8154815290600101906020018083116109af57829003601f168201915b5050505050908060060160009054906101000a900460ff16905085565b60006109f482611403565b90506000600267ffffffffffffffff811115610a1357610a12611d0c565b5b604051908082528060200260200182016040528015610a415781602001602082028036833780820191505090505b509050600060405180606001604052808673ffffffffffffffffffffffffffffffffffffffff168152602001846002811115610a8057610a7f6118a4565b5b815260200183815250905080600460008773ffffffffffffffffffffffffffffffffffffffff1673ffffffffffffffffffffffffffffffffffffffff16815260200190815260200160002060008201518160000160006101000a81548173ffffffffffffffffffffffffffffffffffffffff021916908373ffffffffffffffffffffffffffffffffffffffff16021790555060208201518160000160146101000a81548160ff02191690836002811115610b3d57610b3c6118a4565b5b02179055506040820151816001019080519060200190610b5e9291906116ff565b509050507ff5a37da00f0e4029ee2682b1919ee55d7e6f9d7492237aad9bd1aea7d53d4874816000015185604051610b979291906120a3565b60405180910390a15050505050565b600080600460008873ffffffffffffffffffffffffffffffffffffffff1673ffffffffffffffffffffffffffffffffffffffff1681526020019081526020016000206040518060600160405290816000820160009054906101000a900473ffffffffffffffffffffffffffffffffffffffff1673ffffffffffffffffffffffffffffffffffffffff1673ffffffffffffffffffffffffffffffffffffffff1681526020016000820160149054906101000a900460ff166002811115610c6e57610c6d6118a4565b5b6002811115610c8057610c7f6118a4565b5b815260200160018201805480602002602001604051908101604052809291908181526020018280548015610cd357602002820191906000526020600020905b815481526020019060010190808311610cbf575b505050505081525050905060006002811115610cf257610cf16118a4565b5b81602001516002811115610d0957610d086118a4565b5b14610d1357600080fd5b6000600460008873ffffffffffffffffffffffffffffffffffffffff1673ffffffffffffffffffffffffffffffffffffffff1681526020019081526020016000206040518060600160405290816000820160009054906101000a900473ffffffffffffffffffffffffffffffffffffffff1673ffffffffffffffffffffffffffffffffffffffff1673ffffffffffffffffffffffffffffffffffffffff1681526020016000820160149054906101000a900460ff166002811115610dda57610dd96118a4565b5b6002811115610dec57610deb6118a4565b5b815260200160018201805480602002602001604051908101604052809291908181526020018280548015610e3f57602002820191906000526020600020905b815481526020019060010190808311610e2b575b505050505081525050905060016002811115610e5e57610e5d6118a4565b5b81602001516002811115610e7557610e746118a4565b5b14610e7f57600080fd5b6000610e8a87611526565b905060008080549050905060006040518060a00160405280838152602001868152602001858152602001888152602001846004811115610ecd57610ecc6118a4565b5b815250905060008080549050908060018154018082558091505060019003906000526020600020016000909190919091505580600360006001600080549050610f169190612102565b81526020019081526020016000206000820151816000015560208201518160010160008201518160000160006101000a81548173ffffffffffffffffffffffffffffffffffffffff021916908373ffffffffffffffffffffffffffffffffffffffff16021790555060208201518160000160146101000a81548160ff02191690836002811115610fa957610fa86118a4565b5b02179055506040820151816001019080519060200190610fca9291906116ff565b50505060408201518160030160008201518160000160006101000a81548173ffffffffffffffffffffffffffffffffffffffff021916908373ffffffffffffffffffffffffffffffffffffffff16021790555060208201518160000160146101000a81548160ff02191690836002811115611048576110476118a4565b5b021790555060408201518160010190805190602001906110699291906116ff565b505050606082015181600501908161108191906122e2565b5060808201518160060160006101000a81548160ff021916908360048111156110ad576110ac6118a4565b5b02179055509050508973ffffffffffffffffffffffffffffffffffffffff168b73ffffffffffffffffffffffffffffffffffffffff167fc9e3e855764ebb21ed83dcdf8ed5e1398c752d6446308e092c28a84a77a199bd60016000805490506111169190612102565b60405161112391906117ef565b60405180910390a3600160008054905061113d9190612102565b9550505050505095945050505050565b600080600267ffffffffffffffff81111561116b5761116a611d0c565b5b6040519080825280602002602001820160405280156111995781602001602082028036833780820191505090505b50905060006001805490509050600060405180608001604052808381526020018781526020018673ffffffffffffffffffffffffffffffffffffffff1681526020018481525090508060026000848152602001908152602001600020600082015181600001556020820151816001019081611214919061240f565b5060408201518160020160006101000a81548173ffffffffffffffffffffffffffffffffffffffff021916908373ffffffffffffffffffffffffffffffffffffffff16021790555060608201518160030190805190602001906112789291906116ff565b509050506001829080600181540180825580915050600190039060005260206000200160009091909190915055806040015173ffffffffffffffffffffffffffffffffffffffff167fbb27f2f7ca63dac9f2d96c9e5323933629b11219c6d4751c400b207fafb0372482600001516040516112f391906117ef565b60405180910390a281935050505092915050565b6001818154811061131757600080fd5b906000526020600020016000915090505481565b60008060008061133a856116cd565b92509250925060006040518060400160405280601c81526020017f19457468657265756d205369676e6564204d6573736167653a0a33320000000081525090506000818860405160200161138f92919061253e565b604051602081830303815290604052805190602001209050600181868686604051600081526020016040526040516113ca9493929190612591565b6020604051602081039080840390855afa1580156113ec573d6000803e3d6000fd5b505050602060405103519550505050505092915050565b600080826040516020016114179190612612565b604051602081830303815290604052805190602001209050600060405160200161144090612675565b6040516020818303038152906040528051906020012090506000604051602001611469906126d6565b604051602081830303815290604052805190602001209050600060405160200161149290612737565b6040516020818303038152906040528051906020012090508284036114be576000945050505050611521565b8184036114d2576001945050505050611521565b8084036114e6576002945050505050611521565b6040517f08c379a000000000000000000000000000000000000000000000000000000000815260040161151890612798565b60405180910390fd5b919050565b6000808260405160200161153a9190612612565b604051602081830303815290604052805190602001209050600060405160200161156390612804565b604051602081830303815290604052805190602001209050600060405160200161158c90612865565b60405160208183030381529060405280519060200120905060006040516020016115b5906128c6565b60405160208183030381529060405280519060200120905060006040516020016115de90612927565b604051602081830303815290604052805190602001209050600060405160200161160790612988565b60405160208183030381529060405280519060200120905084860361163557600096505050505050506116c8565b83860361164b57600196505050505050506116c8565b82860361166157600296505050505050506116c8565b81860361167757600396505050505050506116c8565b80860361168d57600496505050505050506116c8565b6040517f08c379a00000000000000000000000000000000000000000000000000000000081526004016116bf90612a0f565b60405180910390fd5b919050565b600080600060418451146116e057600080fd5b6020840151915060408401519050602084015160001a92509193909250565b82805482825590600052602060002090810192821561173b579160200282015b8281111561173a57825182559160200191906001019061171f565b5b509050611748919061174c565b5090565b5b8082111561176557600081600090555060010161174d565b5090565b6000604051905090565b600080fd5b600080fd5b6000819050919050565b6117908161177d565b811461179b57600080fd5b50565b6000813590506117ad81611787565b92915050565b6000602082840312156117c9576117c8611773565b5b60006117d78482850161179e565b91505092915050565b6117e98161177d565b82525050565b600060208201905061180460008301846117e0565b92915050565b600073ffffffffffffffffffffffffffffffffffffffff82169050919050565b60006118358261180a565b9050919050565b6118458161182a565b811461185057600080fd5b50565b6000813590506118628161183c565b92915050565b60006020828403121561187e5761187d611773565b5b600061188c84828501611853565b91505092915050565b61189e8161182a565b82525050565b7f4e487b7100000000000000000000000000000000000000000000000000000000600052602160045260246000fd5b600381106118e4576118e36118a4565b5b50565b60008190506118f5826118d3565b919050565b6000611905826118e7565b9050919050565b611915816118fa565b82525050565b60006040820190506119306000830185611895565b61193d602083018461190c565b9392505050565b600081519050919050565b600082825260208201905092915050565b60005b8381101561197e578082015181840152602081019050611963565b60008484015250505050565b6000601f19601f8301169050919050565b60006119a682611944565b6119b0818561194f565b93506119c0818560208601611960565b6119c98161198a565b840191505092915050565b60006060820190506119e960008301866117e0565b81810360208301526119fb818561199b565b9050611a0a6040830184611895565b949350505050565b6000819050919050565b611a2581611a12565b8114611a3057600080fd5b50565b600081359050611a4281611a1c565b92915050565b600080600060608486031215611a6157611a60611773565b5b6000611a6f86828701611a33565b9350506020611a808682870161179e565b9250506040611a9186828701611853565b9150509250925092565b60008115159050919050565b611ab081611a9b565b82525050565b6000602082019050611acb6000830184611aa7565b92915050565b611ada8161182a565b82525050565b611ae9816118fa565b82525050565b600081519050919050565b600082825260208201905092915050565b6000819050602082019050919050565b611b248161177d565b82525050565b6000611b368383611b1b565b60208301905092915050565b6000602082019050919050565b6000611b5a82611aef565b611b648185611afa565b9350611b6f83611b0b565b8060005b83811015611ba0578151611b878882611b2a565b9750611b9283611b42565b925050600181019050611b73565b5085935050505092915050565b6000606083016000830151611bc56000860182611ad1565b506020830151611bd86020860182611ae0565b5060408301518482036040860152611bf08282611b4f565b9150508091505092915050565b600081519050919050565b600082825260208201905092915050565b6000611c2482611bfd565b611c2e8185611c08565b9350611c3e818560208601611960565b611c478161198a565b840191505092915050565b60058110611c6357611c626118a4565b5b50565b6000819050611c7482611c52565b919050565b6000611c8482611c66565b9050919050565b611c9481611c79565b82525050565b600060a082019050611caf60008301886117e0565b8181036020830152611cc18187611bad565b90508181036040830152611cd58186611bad565b90508181036060830152611ce98185611c19565b9050611cf86080830184611c8b565b9695505050505050565b600080fd5b600080fd5b7f4e487b7100000000000000000000000000000000000000000000000000000000600052604160045260246000fd5b611d448261198a565b810181811067ffffffffffffffff82111715611d6357611d62611d0c565b5b80604052505050565b6000611d76611769565b9050611d828282611d3b565b919050565b600067ffffffffffffffff821115611da257611da1611d0c565b5b611dab8261198a565b9050602081019050919050565b82818337600083830152505050565b6000611dda611dd584611d87565b611d6c565b905082815260208101848484011115611df657611df5611d07565b5b611e01848285611db8565b509392505050565b600082601f830112611e1e57611e1d611d02565b5b8135611e2e848260208601611dc7565b91505092915050565b60008060408385031215611e4e57611e4d611773565b5b6000611e5c85828601611853565b925050602083013567ffffffffffffffff811115611e7d57611e7c611778565b5b611e8985828601611e09565b9150509250929050565b600067ffffffffffffffff821115611eae57611ead611d0c565b5b611eb78261198a565b9050602081019050919050565b6000611ed7611ed284611e93565b611d6c565b905082815260208101848484011115611ef357611ef2611d07565b5b611efe848285611db8565b509392505050565b600082601f830112611f1b57611f1a611d02565b5b8135611f2b848260208601611ec4565b91505092915050565b600080600080600060a08688031215611f5057611f4f611773565b5b6000611f5e88828901611853565b9550506020611f6f88828901611853565b945050604086013567ffffffffffffffff811115611f9057611f8f611778565b5b611f9c88828901611e09565b9350506060611fad8882890161179e565b925050608086013567ffffffffffffffff811115611fce57611fcd611778565b5b611fda88828901611f06565b9150509295509295909350565b60008060408385031215611ffe57611ffd611773565b5b600083013567ffffffffffffffff81111561201c5761201b611778565b5b61202885828601611e09565b925050602061203985828601611853565b9150509250929050565b7f4e487b7100000000000000000000000000000000000000000000000000000000600052602260045260246000fd5b6000600282049050600182168061208a57607f821691505b60208210810361209d5761209c612043565b5b50919050565b60006040820190506120b86000830185611895565b81810360208301526120ca818461199b565b90509392505050565b7f4e487b7100000000000000000000000000000000000000000000000000000000600052601160045260246000fd5b600061210d8261177d565b91506121188361177d565b92508282039050818111156121305761212f6120d3565b5b92915050565b60008190508160005260206000209050919050565b60006020601f8301049050919050565b600082821b905092915050565b6000600883026121987fffffffffffffffffffffffffffffffffffffffffffffffffffffffffffffffff8261215b565b6121a2868361215b565b95508019841693508086168417925050509392505050565b6000819050919050565b60006121df6121da6121d58461177d565b6121ba565b61177d565b9050919050565b6000819050919050565b6121f9836121c4565b61220d612205826121e6565b848454612168565b825550505050565b600090565b612222612215565b61222d8184846121f0565b505050565b5b818110156122515761224660008261221a565b600181019050612233565b5050565b601f8211156122965761226781612136565b6122708461214b565b8101602085101561227f578190505b61229361228b8561214b565b830182612232565b50505b505050565b600082821c905092915050565b60006122b96000198460080261229b565b1980831691505092915050565b60006122d283836122a8565b9150826002028217905092915050565b6122eb82611bfd565b67ffffffffffffffff81111561230457612303611d0c565b5b61230e8254612072565b612319828285612255565b600060209050601f83116001811461234c576000841561233a578287015190505b61234485826122c6565b8655506123ac565b601f19841661235a86612136565b60005b828110156123825784890151825560018201915060208501945060208101905061235d565b8683101561239f578489015161239b601f8916826122a8565b8355505b6001600288020188555050505b505050505050565b60008190508160005260206000209050919050565b601f82111561240a576123db816123b4565b6123e48461214b565b810160208510156123f3578190505b6124076123ff8561214b565b830182612232565b50505b505050565b61241882611944565b67ffffffffffffffff81111561243157612430611d0c565b5b61243b8254612072565b6124468282856123c9565b600060209050601f8311600181146124795760008415612467578287015190505b61247185826122c6565b8655506124d9565b601f198416612487866123b4565b60005b828110156124af5784890151825560018201915060208501945060208101905061248a565b868310156124cc57848901516124c8601f8916826122a8565b8355505b6001600288020188555050505b505050505050565b600081905092915050565b60006124f782611bfd565b61250181856124e1565b9350612511818560208601611960565b80840191505092915050565b6000819050919050565b61253861253382611a12565b61251d565b82525050565b600061254a82856124ec565b91506125568284612527565b6020820191508190509392505050565b61256f81611a12565b82525050565b600060ff82169050919050565b61258b81612575565b82525050565b60006080820190506125a66000830187612566565b6125b36020830186612582565b6125c06040830185612566565b6125cd6060830184612566565b95945050505050565b600081905092915050565b60006125ec82611944565b6125f681856125d6565b9350612606818560208601611960565b80840191505092915050565b600061261e82846125e1565b915081905092915050565b7f4953535545520000000000000000000000000000000000000000000000000000600082015250565b600061265f6006836125d6565b915061266a82612629565b600682019050919050565b600061268082612652565b9150819050919050565b7f50524f5645520000000000000000000000000000000000000000000000000000600082015250565b60006126c06006836125d6565b91506126cb8261268a565b600682019050919050565b60006126e1826126b3565b9150819050919050565b7f5645524946494552000000000000000000000000000000000000000000000000600082015250565b60006127216008836125d6565b915061272c826126eb565b600882019050919050565b600061274282612714565b9150819050919050565b7f726563656976656420696e76616c696420656e74697479206d6f646500000000600082015250565b6000612782601c8361194f565b915061278d8261274c565b602082019050919050565b600060208201905081810360008301526127b181612775565b9050919050565b7f4d414e5546414354555245440000000000000000000000000000000000000000600082015250565b60006127ee600c836125d6565b91506127f9826127b8565b600c82019050919050565b600061280f826127e1565b9150819050919050565b7f44454c49564552494e475f494e5445524e4154494f4e414c0000000000000000600082015250565b600061284f6018836125d6565b915061285a82612819565b601882019050919050565b600061287082612842565b9150819050919050565b7f53544f5245440000000000000000000000000000000000000000000000000000600082015250565b60006128b06006836125d6565b91506128bb8261287a565b600682019050919050565b60006128d1826128a3565b9150819050919050565b7f44454c49564552494e475f4c4f43414c00000000000000000000000000000000600082015250565b60006129116010836125d6565b915061291c826128db565b601082019050919050565b600061293282612904565b9150819050919050565b7f44454c4956455245440000000000000000000000000000000000000000000000600082015250565b60006129726009836125d6565b915061297d8261293c565b600982019050919050565b600061299382612965565b9150819050919050565b7f726563656976656420696e76616c69642063657274696669636174696f6e207360008201527f7461747573000000000000000000000000000000000000000000000000000000602082015250565b60006129f960258361194f565b9150612a048261299d565b604082019050919050565b60006020820190508181036000830152612a28816129ec565b905091905056fea2646970667358221220439b51cac54c7c8c71b49abe8355094f05d980a1fadd705bbb6e1f09cbe7ad9b64736f6c63430008110033",
  "immutableReferences": {},
  "source": "pragma solidity >=0.8.4;\r\n\r\nlibrary CryptoSuite {\r\n    function splitSignature(bytes memory sig)\r\n        internal\r\n        pure\r\n        returns (\r\n            uint8 v,\r\n            bytes32 r,\r\n            bytes32 s\r\n        )\r\n    {\r\n        require(sig.length == 65);\r\n        assembly {\r\n            r := mload(add(sig, 32))\r\n            s := mload(add(sig, 64))\r\n            v := byte(0, mload(add(sig, 32)))\r\n        }\r\n        return (v, r, s);\r\n    }\r\n\r\n    function recoverSigner(bytes32 message, bytes memory sig)\r\n        internal\r\n        pure\r\n        returns (address)\r\n    {\r\n        (uint8 v, bytes32 r, bytes32 s) = splitSignature(sig);\r\n        bytes memory prefix = \"\\x19Ethereum Signed Message:\\n32\";\r\n        bytes32 prefixedHash = keccak256(abi.encodePacked(prefix, message));\r\n        return ecrecover(prefixedHash, v, r, s);\r\n    }\r\n}\r\n\r\ncontract SupplyChain {\r\n    enum Mode {\r\n        ISSUER,\r\n        PROVER,\r\n        VERIFIER\r\n    }\r\n    struct Entity {\r\n        address id;\r\n        Mode mode;\r\n        uint256[] CertificateIds;\r\n    }\r\n    enum Status {\r\n        MANUFACTURED,\r\n        DELIVERING_INTERNATIONAL,\r\n        STORED,\r\n        DELIVERING_LOCAL,\r\n        DELIVERED\r\n    }\r\n    struct Certificate {\r\n        uint256 id;\r\n        Entity issuer;\r\n        Entity prover;\r\n        bytes signature;\r\n        Status status;\r\n    }\r\n    struct SeedBatch {\r\n        uint256 id;\r\n        string brand;\r\n        address manufacturer;\r\n        uint256[] CertificateIds;\r\n    }\r\n    uint256 public constant MAX_CERTIFICATIONS = 2;\r\n    uint256[] public certificateIds;\r\n    uint256[] public seedBatchIds;\r\n    mapping(uint256 => SeedBatch) public seedBatches;\r\n    mapping(uint256 => Certificate) public certificates;\r\n    mapping(address => Entity) public entities;\r\n    event AddEntity(address entityId, string entityMode);\r\n    event AddSeedBatch(uint256 seedBatchId, address indexed manufacturer);\r\n    event IssueCertificate(\r\n        address indexed issuer,\r\n        address indexed prover,\r\n        uint256 certificateId\r\n    );\r\n\r\n    function addEntity(address _id, string memory _mode) public {\r\n        Mode mode = unmarshalMode(_mode);\r\n        uint256[] memory _certificateIds = new uint256[](MAX_CERTIFICATIONS);\r\n        Entity memory entity = Entity(_id, mode, _certificateIds);\r\n        entities[_id] = entity;\r\n        emit AddEntity(entity.id, _mode);\r\n    }\r\n\r\n    function unmarshalMode(string memory _mode)\r\n        private\r\n        pure\r\n        returns (Mode mode)\r\n    {\r\n        bytes32 encodedMode = keccak256(abi.encodePacked(_mode));\r\n        bytes32 encodedMode0 = keccak256(abi.encodePacked(\"ISSUER\"));\r\n        bytes32 encodedMode1 = keccak256(abi.encodePacked(\"PROVER\"));\r\n        bytes32 encodedMode2 = keccak256(abi.encodePacked(\"VERIFIER\"));\r\n        if (encodedMode == encodedMode0) {\r\n            return Mode.ISSUER;\r\n        } else if (encodedMode == encodedMode1) {\r\n            return Mode.PROVER;\r\n        } else if (encodedMode == encodedMode2) {\r\n            return Mode.VERIFIER;\r\n        }\r\n        revert(\"received invalid entity mode\");\r\n    }\r\n\r\n    function addSeedBatch(string memory brand, address manufacturer)\r\n        public\r\n        returns (uint256)\r\n    {\r\n        uint256[] memory _certificateIds = new uint256[](MAX_CERTIFICATIONS);\r\n        uint256 id = seedBatchIds.length;\r\n        SeedBatch memory batch = SeedBatch(\r\n            id,\r\n            brand,\r\n            manufacturer,\r\n            _certificateIds\r\n        );\r\n\r\n        seedBatches[id] = batch;\r\n        seedBatchIds.push(id);\r\n        emit AddSeedBatch(batch.id, batch.manufacturer);\r\n        return id;\r\n    }\r\n\r\n    function issueCertificate(\r\n        address _issuer,\r\n        address _prover,\r\n        string memory _status,\r\n        uint256 seedBatchId,\r\n        bytes memory signature\r\n    ) public returns (uint256) {\r\n        Entity memory issuer = entities[_issuer];\r\n        require(issuer.mode == Mode.ISSUER);\r\n        Entity memory prover = entities[_prover];\r\n        require(prover.mode == Mode.PROVER);\r\n\r\n        Status status = unmarshalStatus(_status);\r\n        uint256 id = certificateIds.length;\r\n        Certificate memory certificate = Certificate(\r\n            id,\r\n            issuer,\r\n            prover,\r\n            signature,\r\n            status\r\n        );\r\n        certificateIds.push(certificateIds.length);\r\n        certificates[certificateIds.length - 1] = certificate;\r\n        emit IssueCertificate(_issuer, _prover, certificateIds.length - 1);\r\n        return certificateIds.length - 1;\r\n    }\r\n\r\n    function unmarshalStatus(string memory _status)\r\n        private\r\n        pure\r\n        returns (Status status)\r\n    {\r\n        bytes32 encodedStatus = keccak256(abi.encodePacked(_status));\r\n        bytes32 encodedStatus0 = keccak256(abi.encodePacked(\"MANUFACTURED\"));\r\n        bytes32 encodedStatus1 = keccak256(\r\n            abi.encodePacked(\"DELIVERING_INTERNATIONAL\")\r\n        );\r\n        bytes32 encodedStatus2 = keccak256(abi.encodePacked(\"STORED\"));\r\n        bytes32 encodedStatus3 = keccak256(\r\n            abi.encodePacked(\"DELIVERING_LOCAL\")\r\n        );\r\n        bytes32 encodedStatus4 = keccak256(abi.encodePacked(\"DELIVERED\"));\r\n\r\n        if (encodedStatus == encodedStatus0) {\r\n            return Status.MANUFACTURED;\r\n        } else if (encodedStatus == encodedStatus1) {\r\n            return Status.DELIVERING_INTERNATIONAL;\r\n        } else if (encodedStatus == encodedStatus2) {\r\n            return Status.STORED;\r\n        } else if (encodedStatus == encodedStatus3) {\r\n            return Status.DELIVERING_LOCAL;\r\n        } else if (encodedStatus == encodedStatus4) {\r\n            return Status.DELIVERED;\r\n        }\r\n\r\n        revert(\"received invalid certification status\");\r\n    }\r\n\r\n    function isMatchingSignature(\r\n        bytes32 message,\r\n        uint256 id,\r\n        address issuer\r\n    ) public view returns (bool) {\r\n        Certificate memory cert = certificates[id];\r\n        require(cert.issuer.id == issuer);\r\n        address recoveredSigner = CryptoSuite.recoverSigner(\r\n            message,\r\n            cert.signature\r\n        );\r\n        return recoveredSigner == cert.issuer.id;\r\n    }\r\n}\r\n",
  "sourcePath": "C:\\Users\\SRINIVAS\\OneDrive\\Desktop\\Supplychain\\contracts\\SupplyChain.sol",
  "compiler": {
    "name": "solc",
    "version": "0.8.17+commit.8df45f5f.Emscripten.clang"
  },
  "schemaVersion": "3.4.10",
  "updatedAt": "2022-09-18T11:21:31.566Z",
  "devdoc": {
    "kind": "dev",
    "methods": {},
    "version": 1
  },
  "userdoc": {
    "kind": "user",
    "methods": {},
    "version": 1
  }
}